{
  "contractName": "ToDo",
  "abi": [
    {
      "constant": false,
      "inputs": [
        {
          "name": "text",
          "type": "string"
        }
      ],
      "name": "newTask",
      "outputs": [
        {
          "name": "taskID",
          "type": "uint256"
        }
      ],
      "payable": false,
      "stateMutability": "nonpayable",
      "type": "function"
    },
    {
      "constant": false,
      "inputs": [
        {
          "name": "index",
          "type": "uint256"
        }
      ],
      "name": "done",
      "outputs": [],
      "payable": false,
      "stateMutability": "nonpayable",
      "type": "function"
    },
    {
      "constant": true,
      "inputs": [],
      "name": "getNumberOfTasks",
      "outputs": [
        {
          "name": "length",
          "type": "uint256"
        }
      ],
      "payable": false,
      "stateMutability": "view",
      "type": "function"
    },
    {
      "constant": true,
      "inputs": [
        {
          "name": "index",
          "type": "uint256"
        }
      ],
      "name": "getByIndex",
      "outputs": [
        {
          "name": "text",
          "type": "string"
        },
        {
          "name": "done",
          "type": "bool"
        }
      ],
      "payable": false,
      "stateMutability": "view",
      "type": "function"
    }
  ],
  "bytecode": "0x608060405234801561001057600080fd5b50610750806100206000396000f300608060405260043610610062576000357c0100000000000000000000000000000000000000000000000000000000900463ffffffff1680632d883a731461006757806358a743c7146100a5578063c10f9b1d146100ce578063f6397fd31461010b575b600080fd5b34801561007357600080fd5b5061008e60048036036100899190810190610577565b610136565b60405161009c9291906105f4565b60405180910390f35b3480156100b157600080fd5b506100cc60048036036100c79190810190610577565b61027c565b005b3480156100da57600080fd5b506100f560048036036100f09190810190610536565b6102fa565b6040516101029190610624565b60405180910390f35b34801561011757600080fd5b506101206103c2565b60405161012d9190610624565b60405180910390f35b6060600061014261040b565b6000803373ffffffffffffffffffffffffffffffffffffffff1673ffffffffffffffffffffffffffffffffffffffff1681526020019081526020016000208481548110151561018d57fe5b9060005260206000209060020201604080519081016040529081600082018054600181600116156101000203166002900480601f01602080910402602001604051908101604052809291908181526020018280546001816001161561010002031660029004801561023f5780601f106102145761010080835404028352916020019161023f565b820191906000526020600020905b81548152906001019060200180831161022257829003601f168201915b505050505081526020016001820160009054906101000a900460ff1615151515815250509050806000015181602001518191509250925050915091565b60008060003373ffffffffffffffffffffffffffffffffffffffff1673ffffffffffffffffffffffffffffffffffffffff168152602001908152602001600020828154811015156102c957fe5b9060005260206000209060020201905060018160010160006101000a81548160ff0219169083151502179055505050565b60008060003373ffffffffffffffffffffffffffffffffffffffff1673ffffffffffffffffffffffffffffffffffffffff168152602001908152602001600020604080519081016040528084815260200160001515815250908060018154018082558091505090600182039060005260206000209060020201600090919290919091506000820151816000019080519060200190610399929190610427565b5060208201518160010160006101000a81548160ff021916908315150217905550505050919050565b60008060003373ffffffffffffffffffffffffffffffffffffffff1673ffffffffffffffffffffffffffffffffffffffff16815260200190815260200160002080549050905090565b6040805190810160405280606081526020016000151581525090565b828054600181600116156101000203166002900490600052602060002090601f016020900481019282601f1061046857805160ff1916838001178555610496565b82800160010185558215610496579182015b8281111561049557825182559160200191906001019061047a565b5b5090506104a391906104a7565b5090565b6104c991905b808211156104c55760008160009055506001016104ad565b5090565b90565b600082601f83011215156104df57600080fd5b81356104f26104ed8261066c565b61063f565b9150808252602083016020830185838301111561050e57600080fd5b6105198382846106c3565b50505092915050565b600061052e82356106b9565b905092915050565b60006020828403121561054857600080fd5b600082013567ffffffffffffffff81111561056257600080fd5b61056e848285016104cc565b91505092915050565b60006020828403121561058957600080fd5b600061059784828501610522565b91505092915050565b6105a9816106a3565b82525050565b60006105ba82610698565b8084526105ce8160208601602086016106d2565b6105d781610705565b602085010191505092915050565b6105ee816106af565b82525050565b6000604082019050818103600083015261060e81856105af565b905061061d60208301846105a0565b9392505050565b600060208201905061063960008301846105e5565b92915050565b6000604051905081810181811067ffffffffffffffff8211171561066257600080fd5b8060405250919050565b600067ffffffffffffffff82111561068357600080fd5b601f19601f8301169050602081019050919050565b600081519050919050565b60008115159050919050565b6000819050919050565b6000819050919050565b82818337600083830152505050565b60005b838110156106f05780820151818401526020810190506106d5565b838111156106ff576000848401525b50505050565b6000601f19601f83011690509190505600a265627a7a72305820eb66afbd626b3f19120c727a874ed5e691887681523f0f144e7b8ccf1c8331006c6578706572696d656e74616cf50037",
  "source": "pragma solidity ^0.4.24;\npragma experimental ABIEncoderV2;\n\ncontract ToDo {\n    struct Task {\n        string text;\n        bool done;\n    }\n\n    mapping(address => Task[]) addressToTasks;\n\n    function newTask(string memory text) public returns (uint taskID) {\n        addressToTasks[msg.sender].push(Task(text, false));\n    }\n\n    function done(uint index) public {\n        Task storage t = addressToTasks[msg.sender][index];\n        t.done = true;\n    }\n\n    function getNumberOfTasks() public view returns (uint length) {\n        return addressToTasks[msg.sender].length;\n    }\n\n    function getByIndex(uint index) public view returns (string memory text, bool done) {\n        Task memory t = addressToTasks[msg.sender][index];\n        return (t.text, t.done);\n    }\n}",
  "sourcePath": "/Users/dsk/org/daisuke310vvv/web3todo/contracts/todo.sol",
  "compiler": {
    "name": "solc",
    "version": "0.4.24+commit.e67f0147.Emscripten.clang"
  },
  "schemaVersion": "2.0.1",
  "updatedAt": "2018-12-01T01:03:39.905Z"
}